:020000040000FA
:10000000A9EF09F01200FFFFD6EF04F01200FFFF86
:10001000FFFFFFFFFFFFFFFF27EF05F01200FFFFCD
:10002000FFFFFFFFFFFFFFFFFFFF0000D9CFE6FF4D
:10003000E1CFD9FF040EE1269D9AAB9E0A6A0B6AB6
:100040000C6A0D6ADE6A090EDE6E3D0EDE6EDD6A3A
:10005000DD52DD52FD0EDBCF2CF0FE0EDBCF2DF09E
:100060002E6A2F6AA00E286E250E296E260E2A6E85
:100070002B6A28C01CF029C01DF02AC01EF02BC01E
:100080001FF02CC021F02DC022F02EC023F02FC075
:1000900024F055EC09F0050E1C26000E1D221E2230
:1000A0001F220A0E216E226A236A246A55EC09F087
:1000B0001CC0DEFF1DC0DEFF1EC0DEFF1FC0DDFF57
:1000C000DD52DD52000EDB04AF6E948E949CAB6A61
:1000D000AB88AB8E9D8A9F8A9E9AAC6AAC8AAC84B0
:1000E0009F889D989E98829A949A020E106E040E94
:1000F000E15C02E2E16AE552E16EE552E7CFD9FF49
:1001000012001050070A37E0010A3EE0030A2BE014
:10011000010A1CE0070A15E0020A36E0030A31E191
:100120000E6A0A92080E126E116A0201700EB06F0A
:10013000020EB16F829A9D989E98010E106E24D087
:1001400023D00AA421D0020E106E1ED01FD80009A1
:1001500003E0020E106E18D0828A140E0E6E0A8210
:10016000050E106E11D00AA40FD00D6A9D88060EE0
:10017000106E0AD009D0ACA207D0020E106E829A7F
:1001800003D0020E106E829A10501200D9CFE6FFF3
:10019000E1CFD9FF0E0EE126D9500C0FE96EDACF70
:1001A000EAFF700EEE6E020EED6ED9500A0FE96E88
:1001B000DACFEAFF900EEE6E020EED6E0C0EDBCF84
:1001C000E9FF0D0EDBCFEAFFEF50085C02E0010E05
:1001D00023D30C0EDBCFE9FF0D0EDBCFEAFFEE528F
:1001E000EF50060A01E111D2050A01E0E5D2000153
:1001F000060EA16F0001700E9F6F020EA06F18DB3C
:10020000F3CF14F0F4CF15F076C216F077C217F0E2
:100210001450161802E11550171802E0010EFCD216
:100220000C0EDBCFE9FF0D0EDBCFEAFF020EE92655
:10023000000EEA22030EE926000EEA22010EEFCF9D
:10024000DBFFDB50080802E2010EE6D2010EDB50B4
:10025000E824DF6E0C0EDBCFE9FF0D0EDBCFEAFFEB
:10026000EF50E66E0A0EDBCFE9FF0B0EDBCFEAFFA5
:10027000E552E750EF6E0C0EDBCFE9FF0D0EDBCF42
:10028000EAFFEE52EF50E66E0A0EDBCFE9FF0B0EEF
:10029000DBCFEAFFEE52E552E750EF6E0A0EDBCFFE
:1002A000E9FF0B0EDBCFEAFF020EE926000EEA2281
:1002B000DFCFEFFFD950080FE96EDACFEAFF000E6B
:1002C000EE6E010EED6E0A0EDBCFE9FF0B0EDBCFFB
:1002D000EAFF020EE926000EEA22E9CF28F0EACF73
:1002E00029F0010E2826000E2922060E28C0DBFF69
:1002F000070E29C0DBFF0C0EDBCFE9FF0D0EDBCFB5
:10030000EAFF020EE926000EEA22EF50E66ED9500F
:10031000020FE96EDACFEAFFE552E750EE6EED6AC2
:10032000D950020FE96EDACFEAFFEE50ED6EEF6AB8
:100330000C0EDBCFE9FF0D0EDBCFEAFF020EE92644
:10034000000EEA22010EE926000EEA22EF50286E86
:10035000296AD950020FE96EDACFEAFF2850EE126F
:100360002950ED12640E286E296A020EDBCF1EF0B2
:10037000030EDBCF1FF028C023F029C024F093EC3C
:1003800009F0040E1EC0DBFFDB500B0A01E1B8D000
:100390000B0A01E1ABD0080A01E195D00F0A01E197
:1003A0007FD0010A6AE0030A55E0010A40E0070A2B
:1003B0002BE0010A16E0030A01E0B4D0D950080F7F
:1003C000E96EDACFEAFF000EEE6E010EED6ED95047
:1003D000020FE96EDACFEAFF640EEE5E000EED5A10
:1003E000A1D0D950080FE96EDACFEAFF100EEE6EF9
:1003F000010EED6ED950020FE96EDACFEAFFC80E9A
:10040000EE5E000EED5A8ED0D950080FE96EDACFAD
:10041000EAFF200EEE6E010EED6ED950020FE96E6E
:10042000DACFEAFF2C0EEE5E010EED5A7BD0D950EA
:10043000080FE96EDACFEAFF300EEE6E010EED6EB8
:10044000D950020FE96EDACFEAFF900EEE5E010E90
:10045000ED5A68D0D950080FE96EDACFEAFF400EA6
:10046000EE6E010EED6ED950020FE96EDACFEAFFA3
:10047000F40EEE5E010EED5A55D0D950080FE96E1C
:10048000DACFEAFF500EEE6E010EED6ED950020F7C
:10049000E96EDACFEAFF580EEE5E020EED5A42D058
:1004A000D950080FE96EDACFEAFF600EEE6E010E4A
:1004B000ED6ED950020FE96EDACFEAFFBC0EEE5EA8
:1004C000020EED5A2FD0D950080FE96EDACFEAFFAD
:1004D000700EEE6E010EED6ED950020FE96EDACF9E
:1004E000EAFF200EEE5E030EED5A1CD0D950080F25
:1004F000E96EDACFEAFF800EEE6E000EED6E12D0DE
:10050000D950080FE96EDACFEAFF8A0EEE6E000EC0
:10051000ED6ED950020FE96EDACFEAFF4C0EEE5EB7
:10052000040EED5AD950020FE96EDACFEAFF010E40
:10053000D890EE36ED36E806FBE1020EDBCF28F070
:10054000030EDBCF29F0D950080FE96EDACFEAFFAE
:100550002850EE262950ED22050EDB6ADF50F36E9F
:10056000050EDBCFF4FFF350F45C01E325D1010E5F
:10057000E76E080EDBCFE9FF090EDBCFEAFFE7509D
:10058000E926000EEA22EF50E66E060EDBCFE9FF09
:10059000070EDBCFEAFFE552E750EF6E080EDBCF28
:1005A000E9FF090EDBCFEAFFEF50E66E010EE76EC2
:1005B000060EDBCFE9FF070EDBCFEAFFE750E926A7
:1005C000000EEA22E552E750EF6E060EDB2A070E18
:1005D00001E3DB2A060EDB2A070E01E3DB2A080E05
:1005E000DB2A090E01E3DB2A080EDB2A090E01E3F0
:1005F000DB2A020E286E050EDBCFE7FF2850E72628
:10060000050EE7CFDBFFAAD7D7D00C0EDBCFE9FF73
:100610000D0EDBCFEAFF020EE926000EEA22010EE4
:10062000E926000EEA22EFCF28F0080E285C02E34C
:10063000010EF2D0060EDBCFE9FF070EDBCFEAFF9B
:10064000EF50E66E0A0EDBCFE9FF0B0EDBCFEAFFC1
:10065000020EE926000EEA22020EE926000EEA2228
:10066000E552E750EF6E010EE76E060EDBCFE9FFB5
:10067000070EDBCFEAFFE750E926000EEA22EF5033
:10068000E66E0A0EDBCFE9FF0B0EDBCFEAFF020EB0
:10069000E926000EEA22030EE926000EEA22E552C0
:1006A000E750EF6E0C0EDBCFE9FF0D0EDBCFEAFF5C
:1006B000EF50E66E0A0EDBCFE9FF0B0EDBCFEAFF51
:1006C000E552E750EF6E0C0EDBCFE9FF0D0EDBCFEE
:1006D000EAFFEE52EF50E66E0A0EDBCFE9FF0B0E9B
:1006E000DBCFEAFFEE52E552E750EF6E0C0EDBCFA8
:1006F000E9FF0D0EDBCFEAFF020EE926000EEA222B
:10070000EF50E66E0A0EDBCFE9FF0B0EDBCFEAFF00
:10071000020EE926000EEA22E552E750EF6E0C0EBB
:10072000DBCFE9FF0D0EDBCFEAFF020EE926000E5C
:10073000EA22010EE926000EEA22EF50E66E0A0ECA
:10074000DBCFE9FF0B0EDBCFEAFF020EE926000E3E
:10075000EA22010EE926000EEA22E552E750EF6E8A
:10076000030EDF6E4CEC08F027D00C0EDBCFE9FF58
:100770000D0EDBCFEAFFEF50E66E0A0EDBCFE9FF8E
:100780000B0EDBCFEAFFE552E750EF6E0A0EDBCF30
:10079000E9FF0B0EDBCFEAFFEE52830EEF6E0A0E7F
:1007A000DBCFE9FF0B0EDBCFEAFF020EE926000EDE
:1007B000EA22010EEF6EDF6A030EDF240001A16F53
:1007C0000A0EDBCF9FF00B0EDBCFA0F031D8020E6C
:1007D000F3CFDBFF030EF4CFDBFF0A0EDBCFE9FF25
:1007E0000B0EDBCFEAFF020EE926000EEA22E9CF6C
:1007F00028F0EACF29F0DF280F012824E96E000E47
:100800002920EA6E020EDBCFEEFF030EDBCFEDFFF9
:10081000050EDF240B6E000E286E0E0EE15C02E268
:10082000E16AE552E16E2850E552E7CFD9FF1200A8
:10083000D9CFE6FFE1CFD9FF060EE126DE68DD68FD
:100840000001A151A107000953E09FC0E9FFA0C02A
:10085000EAFF020EEFCFDBFF9F2B000EA023030E5B
:10086000DB6A080EF36E030EDBCFF4FFF350F45C8B
:10087000E7E2020EDB50E76E000EDFCF28F0010E3C
:10088000DBCF29F0E750281A040E28C0DBFF050E45
:1008900029C0DBFFD950040FE96EDACFEAFF010E61
:1008A000EE16ED6AD9CFE9FFDACFEAFF0F0B06E0CB
:1008B000EC52D890ED32EF32E806FAE1020EDBCFCF
:1008C000F3FFF390F342F3CFDBFFD950040FE96E4F
:1008D000DACFEAFFEE50ED1007E0D9CFE9FFDACF2B
:1008E000EAFFEE70A00EED1A030EDB2ABAD7A8D7E6
:1008F000DECF28F0DDCF29F028C0F3FF29C0F4FFB8
:10090000060EE15C02E2E16AE552E16EE552E7CFF4
:10091000D9FF1200060EAB1402E1125003E1AE50F3
:10092000E86E12001150EA6A700FE96E020EEA22B8
:10093000AECFEFFF640E0E6E0A940A8211040FE12F
:10094000B0C2E9FFB1C2EAFFEF50136E050E135CAF
:1009500003E0060E135C03E1050E126E122A11501D
:1009600002E1030E106E1206112A125003E10A92E0
:10097000040E106E12000D50D8800B5412E20D5070
:10098000EA6A900FE96E020EEA22EF50AD6E0D2872
:100990001F0B0D6E0D500B5C05E1070E106E9D9840
:1009A00012009D9812009D9A9D8A1200DACFE4FFF2
:1009B000E2CFDAFFE9CFE4FFEACFE4FFF6CFE4FFCE
:1009C000F7CFE4FFF5CFE4FFF3CFE4FFF4CFE4FF8C
:1009D000FACFE4FF00EE18F0100EE80403E3EECFC8
:1009E000E4FFFBD700EE28F0080EE80403E3EECFA7
:1009F000E4FFFBD7E6529EAA02D08AEC04F09EA840
:100A000002D0BBEC04F0E55200EE2FF0080EE80433
:100A100003E3E5CFEDFFFBD700EE27F0100EE8046F
:100A200003E3E5CFEDFFFBD7E5CFFAFFE5CFF4FF1A
:100A3000E5CFF3FFE5CFF5FFE5CFF7FFE5CFF6FF15
:100A4000E5CFEAFFE5CFE9FFE5CFDAFF1100DACF26
:100A5000E4FFE2CFDAFFE652F2A416D0F294FD0EE4
:100A6000D76E8E0ED66E0AA208D00E50000801E294
:100A70000E060E5002E10A840A9200A805D0035027
:100A800002E10098008A03069EA017D09E90E70E10
:100A9000CF6E950ECE6E00A205D0015002E10092FD
:100AA0000080010600A605D0025002E100960084F5
:100AB00002060650000801E20606E552E5CFDAFF1D
:100AC0001100AED882D8F9D880968098809A00011B
:100AD000996B68D8000903E0808A94D8809A000155
:100AE000140E956F3FD880868088808AF7D88ED97B
:100AF000B0DA81EC00F006502DE100018A5127E0C8
:100B00008A51931513E094C09BF09ED900090BE025
:100B10000001939F9347935103E1010E936F8983E3
:100B20009429070B946F0A0E066E0AD0939F934781
:100B3000935103E1010E936F89839429070B946FFE
:100B4000000189A302D0809805D0808803D08078E6
:100B5000050E066EC7DA000189B1CBD72DD8086E15
:100B6000C8D7120095C001F00090008200A0FED707
:100B7000120096C003F0009A008800AAFED7120067
:100B800098C0A9FF97C0A8FFA69EA69CA684F29E27
:100B9000550EA76EAA0EA76EA682F28EA6B2FED73B
:100BA000A694120099C0A9FFA69EA69CA680A8CFD5
:100BB00099F000019951120081CFABF01E0E000197
:100BC000AB17AB91AB43AB5112000001896B056AC7
:100BD000006A066A010E936F946B100EE66EE66A69
:100BE000E66A000EE66E020EE66E79EC09F0286EFB
:100BF000050EE15E2850040E076E0A0E066EDCDF5D
:100C0000086E12000001AD6B0A0EAD5D08E2ADC0CA
:100C100098F00001976BB4DF0001AD2BF5D71200FF
:100C2000F18E939A819AC290070EC16E9290929221
:100C300092948090809280949382938493869388F8
:100C40009296808692988088929A808A9380800E6D
:100C5000E66E250EE66E16EC00F0E552E55208D879
:100C600014D8020EE66E80EC08F0E55253EF06F061
:100C7000D56AD59CD59AD596D582F194FD0ED76EBE
:100C80008E0ED66EF28AD58E1200CD6ACD8E300EC3
:100C9000CD12CD92CD96CD809F90E70ECF6E950E62
:100CA000CE6E9D801200C70ECB6E640EBB6E0C0E16
:100CB000BA6E9492040ECA6E1200D08EF28EF28C2E
:100CC000120080CFB7F0F80E0001B717070E000131
:100CD0009A150001B713B7C080FF12000001806BA6
:100CE0000001010EAE6FAC6B080EAC5D01E38DD060
:100CF000020EAC250001996F55DF0001B46FACC046
:100D00009AF0DFDF0001050E966F33DF0001010E60
:100D1000AD6F900EAF6FB56BB66B8098AB6B080E76
:100D2000AB5D52E2809A050EB06F0001600EA66FB7
:100D30000001010EA56FAFC0A4F0B0EC08F00001F7
:100D4000B16FB1510AE10001050E966F12DF807A92
:100D50000001B051B0070009E8E1808AB26BB36BC3
:100D6000B15103E0AD51B51301D0B387B551AD1505
:100D7000286EB451AD152818B613B651AD1502E062
:100D8000B38B01D0B39BAC51100DF3CF28F0F4CF4F
:100D900029F0000E2826010E2922AB51020D285001
:100DA000F324E96E2950F420EA6EB2C0EEFFB3C01E
:100DB000EDFFAD9FAD47020EAF270001010E966F0C
:100DC000D8DE0001AB2BABD78088AC51EA6A810F2B
:100DD000E96E000EEA22B5C0EFFFAC51EA6A100FCF
:100DE000E96E020EEA22B6C0EFFFAC51EA6A810F4B
:100DF000E96E000EEA22EF5003E0AE5100018013CD
:100E00000001AE9FAE47AC2B6FD712000001010E60
:100E1000996FC8DE00018A6F0001AD6B080EAD5DF1
:100E200012E2020EAD250001996FBCDEE66E0001F4
:100E3000AD51EA6A8B0FE96E000EEA22E552E750E7
:100E4000EF6EAD2BEBD712009BC09AF03ADF00019A
:100E5000020E966F8EDE07060001010EAE6F900E39
:100E6000AF6FB16B020E00019B250001996F9ADEF6
:100E70000001B26FAD6B080EAD5D01E3BED0807AAC
:100E8000B251AE1501E1AED0050EB06F0001AA6BF4
:100E9000AFC0A9F00EEC09F0F3CFABF0F4CFACF09B
:100EA0000001AB1D0CE1AC1D0AE1807A0001050ECA
:100EB000966F5FDE0001B051B0070009E7E1AB1D9E
:100EC00001E1AC1D6AE0ABC028F0ACC029F0040E13
:100ED0000F0B05E0D89029322832E806FBE10A0E14
:100EE0002902F3CF29F02802F3CF28F0F450292665
:100EF000040E0F0B05E0D89029322832E806FBE1FA
:100F00000001AD51E96EEA6AD890E936EA36000E82
:100F1000E926020EEA222850EE262950ED2207503B
:100F20003AE1AD51E96EEA6AD890E936EA36000E48
:100F3000E926020EEA22EECF2AF0EFCF2BF0020EC6
:100F40000F0B05E0D8902B322A32E806FBE10001B6
:100F50009B51100DF3CF28F0F4CF29F0000E282676
:100F6000010E29220001AD51020D2850F324E96E33
:100F70002950F420EA6E2AC0EEFF2BC0EDFFAD51E0
:100F8000E96EEA6AD890E936EA36000EE926020EE2
:100F9000EA22EE6AED6AAC9B25D0AB6BAC6BAC8BF6
:100FA00000019B51100DF3CF28F0F4CF29F0000E73
:100FB0002826010E29220001AD51020D2850F324EC
:100FC000E96E2950F420EA6EABC0EEFFACC0EDFF35
:100FD00000019B51EA6A100FE96E020EEA2200013D
:100FE000AE51EF12AE9FAE47020EAF270001050EC5
:100FF000966FBFDD0001AD2B3ED7075004E1040E14
:10100000076E010EB16F808AB15112000001AB6B07
:10101000010EAC6FAC5109E000019C510001AC1510
:1010200001E0AB2BAC9FAC47F5D7AB5112000001F0
:10103000080EAB6F800EAC6FAC5109E000019D5102
:101040000001AC1504E1AB07AC91AC43F5D7AB5153
:10105000120000018997899580518A5D01E0898796
:101060000001AD6B080EAD5D16E2AD51EA6A8B0F63
:10107000E96E000EEA22EFCF28F0AD51EA6A810F47
:10108000E96E000EEA22EF50285C03E0000189853A
:101090001200AD2BE7D712000001986B0001976B8F
:1010A0006FDD0001AB6B090EAB5D11E2AB51EA6A7B
:1010B000800FE96E000EEA22EFCFACF0AB29000101
:1010C000986FACC097F05CDD0001AB2BECD79EDED7
:1010D000C0DF00018951080B03E18951040B01E0D5
:1010E00091DD1200000189998150010B01E089898D
:1010F00012009EC001F00090008200A0FED71200F6
:10110000D9CFE6FFE1CFD9FF94869488080EC66E4A
:101110007F0EC86EC78EC68AE552E7CFD9FF120090
:101120000001A269C750040B01E0010E286E1F0EDA
:10113000C5142810F7E10001A25105E0C550400B8D
:1011400002E0A207F8D7A25112000001A369A3513F
:1011500005E0C750010B02E0A307F9D7A351120025
:10116000C750040B01E0010E286E1F0EC514281095
:10117000F7E1C580C5B0FED7FE0E0001A415C96E0B
:10118000E4DF000917E0CCDF000914E0A5C0C9FFC7
:10119000DCDF00090FE0C4DF00090CE0A6C0C9FFD6
:1011A000D4DF000907E0BCDF000904E0C584C5B452
:1011B000FED7010CC69AC68A000C0001A869C75068
:1011C000040B01E0010E286E1F0EC5142810F7E174
:1011D000C580C5B0FED70001A7919E96A7C0C9FFE4
:1011E0000001A85105E09E50080B02E1A807F8D7BE
:1011F000A85111E0C5AC010CC582A85105E0C5504D
:10120000020B02E0A807F9D7A85105E0A807A851EA
:10121000E4E101D0E2D7C69AC68A000CA9C0A7F0C3
:10122000CCDF000903E1F368F4681200AAC0C9FF2B
:10123000C7B0FED775DF000903E1F368F468120058
:10124000C582C5B2FED7010E0001A911C96EC7B093
:10125000FED766DF000903E1F368F4681200C58673
:10126000C5B6FED7C588C5B8FED7C9CFB5F0C58607
:10127000C5B6FED7C588C5B8FED7C9CFB6F0C584F8
:10128000C5B4FED70001B551B36FB46BB3C0B4F0B1
:10129000B36BB651286E296A2850B3272950B4235E
:1012A000B3C0F3FFB4C0F4FF12001B6A1A6A196AD4
:1012B000186A200EE76ED8901C361D361E361F3673
:1012C000183619361A361B362150185C2250195818
:1012D00023501A5824501B5809E32150185E2250FD
:1012E000195A23501A5A24501B5A1C2AE72EE4D7A5
:1012F0001200FE0EE3CFE9FFFF0EE3CFEAFFE9CFD6
:10130000F3FFEACFF4FFFB0EE35003E1FC0EE350E2
:1013100009E0FB0EE30602E2FC0EE306FD0EE350DD
:10132000EE6EF1D712001B6A1A6A100EE76ED890A3
:101330001E361F361A361B3623501A5C24501B5893
:1013400005E323501A5E24501B5A1E2AE72EF0D7BD
:10135000120012EED0F022EED0F0F86A279CA68E92
:10136000A69C61EC05F0120000EE00F00F0EEE6A94
:10137000EA62FDD712000101000100010001FFFF38
:10138000FFFFFFFFFFFFFFFFFFFFFFFFFFFFFFFF6D
:10139000FFFFFFFFFFFFFFFFFFFFFFFFFFFFFFFF5D
:1013A000FFFFFFFFFFFFFFFFFFFFFFFFFFFFFFFF4D
:1013B000FFFFFFFFFFFFFFFFFFFFFFFFFFFFFFFF3D
:020000040030CA
:0E00000000210F0E000181000FC00FE00F4025
:020000040020DA
:08000000FFFFFFFFFFFFFFFF00
:0200000400F00A
:10000000001F3F1F1F1F1F000000FFFFFFFFFFFF1C
:10001000FFFFFFFFFFFFFFFFFFFFFFFFFFFFFFFFF0
:10002000FFFFFFFFFFFFFFFFFFFFFFFFFFFFFFFFE0
:10003000FFFFFFFFFFFFFFFFFFFFFFFFFFFFFFFFD0
:10004000FFFFFFFFFFFFFFFFFFFFFFFFFFFFFFFFC0
:10005000FFFFFFFFFFFFFFFFFFFFFFFFFFFFFFFFB0
:10006000FFFFFFFFFFFFFFFFFFFFFFFFFFFFFFFFA0
:10007000FFFFFFFFFFFFFFFFFFFFFFFFFFFFFFFF90
:10008000FFFFFFFFFFFFFFFFFFFFFFFFFFFFFFFF80
:10009000FFFFFFFFFFFFFFFFFFFFFFFFFFFFFFFF70
:1000A000FFFFFFFFFFFFFFFFFFFFFFFFFFFFFFFF60
:1000B000FFFFFFFFFFFFFFFFFFFFFFFFFFFFFFFF50
:1000C000FFFFFFFFFFFFFFFFFFFFFFFFFFFFFFFF40
:1000D000FFFFFFFFFFFFFFFFFFFFFFFFFFFFFFFF30
:1000E000FFFFFFFFFFFFFFFFFFFFFFFFFFFFFFFF20
:1000F000FFFFFFFFFFFFFFFFFFFFFFFFFFFFFFFF10
:00000001FF
